:100000000C943E000C945B000C945B000C945D001F
:100010000C945B000C945B000C945B000C945B00F4
:100020000C945B000C945B000C945B000C945B00E4
:100030000C945B000C945B000C945B000C945B00D4
:100040000C945B000C945B000C945B000C945B00C4
:100050000C945B000C945B000C945B000C945B00B4
:100060000C945B000C945B000C945B000C945B00A4
:100070000C945B000C945B000C945B0011241FBE7D
:10008000CFEFD4E0DEBFCDBF11E0A0E0B1E0E0EE05
:10009000F2E002C005900D92A433B107D9F722E037
:1000A000A4E3B1E001C01D92AC30B207E1F70E94B9
:1000B00086000C946E010C9400001F921FB61F92D4
:1000C00011248F93EF93FF934F9914C08FEF81B951
:1000D000E6B1F0E0EC5CFE4F808182B94F9B08C036
:1000E00011B8FF91EF918F911F901FBE1F9018952F
:1000F0000000F4CF4E99F5CF86B18A3090F3E6B187
:10010000F0E080B1EC5CFE4F8083EBCFCDB7DEB783
:100110002A970FB6F894DEBF0FBECDBF8AE0E8E2A3
:10012000F1E0DE01119601900D928A95E1F7FE0152
:10013000319680E090E02191DC01AC5CBE4F2C93C5
:1001400001968A309105B9F710923F0110923E0155
:1001500011B817B880E38AB980E28093690084E01F
:100160008DBB92E09093C50088E08093C40090938B
:10017000CD008093CC0088E18093C1008093C900BA
:100180008EE08093C2008093CA00789484E05D9AE8
:10019000E7EEFDEF3197F1F700C000005D98E7EE64
:1001A000FDEF3197F1F700C000005C9AE7EEFDEF3C
:1001B0003197F1F700C000005C98E7EEFDEF319752
:1001C000F1F700C000008A9511F748EE53E060E0B7
:1001D00070E0C12CD12C760100E010E0980191E094
:1001E00081E0E091C000E7FF12C0E0913F01F0E044
:1001F0008091C600EC5CFE4F808B80913F018F5F49
:1002000080933F015D9AC12CD12C760181E0E09171
:100210003E01E115A9F05C9A9091C00095FF06C0DF
:10022000909140019093C60010923E01B82E00E0DC
:1002300010E098018130C1F400E010E0980104C0A2
:10024000813009F041C0892FFFEFCF1ADF0AEF0A92
:10025000FF0ABB24B3944C155D056E057F0510F4B1
:100260005D98B12C813061F40F5F1F4F2F4F3F4FCE
:1002700081E0401751076207730710F45C9880E033
:10028000909141019115E9F0E0914201EA30F8F4D2
:10029000F0E0EE0FFF1FDF01AC5EBE4F9C911196A8
:1002A000AC91E050FF4F4081518160E070E0A0933D
:1002B000C5009093C400A093CD009093CC00109201
:1002C0004101982F8B2D8DCFB82E892FCBCF48EEA3
:1002D00053E060E070E098E0A2E0E9CFF894FFCF4F
:1002E00000000000E803E803E803B80B8813581B7C
:1002F000102710276C0511040802030181002A0051
:10030000240015000F000800146E6574776F726B7F
:0403100020200000A9
:00000001FF
