:100000000C943F000C9467000C9467000C946900FA
:100010000C9467000C9467000C9467000C946700C4
:100020000C9467000C9467000C9467000C946700B4
:100030000C9467000C9467000C9467000C946700A4
:100040000C9467000C9467000C9467000C94670094
:100050000C9467000C9467000C9467000C94670084
:100060000C9467000C9467000C9467000C94670074
:100070000C9467000C9467000C9467002401112411
:100080001FBECFEFD8E0DEBFCDBF11E0A0E0B1E0F2
:10009000E4E7F2E002C005900D92AE31B107D9F766
:1000A00021E0AEE1B1E001C01D92A63FB207E1F749
:1000B00010E0CFE3D0E004C02197FE010E9432019E
:1000C000CE33D107C9F70E9494000C9438010C94E8
:1000D00000001F920F920FB60F9211248F93EF938F
:1000E000FF934F990EC08FEF81B9E6B1F0E0E25E69
:1000F000FE4F808182B94F9902C00000FCCF11B839
:100100000BC04E9909C086B18A3030F0E6B1F0E0FC
:1001100080B1E25EFE4F8083FF91EF918F910F904F
:100120000FBE0F901F90189511B817B880E38AB9C9
:1001300080E28093690084E08DBB92E09093C500DB
:1001400088E08093C4009093CD008093CC0088E138
:100150008093C1008093C9008EE08093C200809399
:10016000CA00789484E05D9AE7EEFDEF3197F1F7ED
:1001700000C000005D98E7EEFDEF3197F1F700C099
:1001800000005C9AE7EEFDEF3197F1F700C0000048
:100190005C98E7EEFDEF3197F1F700C00000815069
:1001A00011F781E09091C00097FF12C0F894E091A0
:1001B0002901F0E09091C600E25EFE4F908B909195
:1001C00029019F5F9093290178945D9A91E001C085
:1001D000982F20912801222371F05C9A8091C00011
:1001E00085FF0CC0F89480912A018093C600789412
:1001F0001092280103C0913029F403C0913021F4FA
:1002000081E05D98813009F45C9880912B01811127
:1002100002C080E0C7CFE0912C01EA3040F4F0E06A
:10022000EE0FFF1FE65FFE4F8081918102C085E1E6
:1002300090E09093C5008093C4009093CD0080938C
:10024000CC0010922B01E5CF8AE0E0E0F1E0AEE1D6
:10025000B1E001900D928A95E1F7EEE1F1E01286AE
:1002600013860895EE0FFF1F0590F491E02D099479
:04027000F894FFCF30
:10027400146E6574776F726B20206C05110408028C
:0E028400030181002A00240015000F0008006D
:00000001FF
